:100000000EC015C014C013C012C011C010C00FC064
:100010000EC00DC00CC00BC00AC009C008C011241E
:100020001FBECFE5D2E0DEBFCDBF02D05CC0E8CFBF
:10003000DF93CF9300D0CDB7DEB7E7E3F0E080E108
:100040008083E6E3F0E08081882F90E088709070F4
:100050009A83898389819A81009731F484E090E0C2
:1000600061E070E007D0EDCF84E090E060E070E008
:1000700001D0E7CFDF93CF9300D000D0CDB7DEB76C
:100080009A8389837C836B838B819C81009791F415
:10009000A8E3B0E0E8E3F0E08081282F81E090E081
:1000A000098002C0880F991F0A94E2F78095822385
:1000B0008C9310C0A8E3B0E0E8E3F0E08081282F43
:1000C00081E090E0098002C0880F991F0A94E2F74E
:1000D000822B8C9381E090E00F900F900F900F9007
:0A00E000CF91DF910895F894FFCF4F
:00000001FF
